{
  "_format": "hh3-artifact-1",
  "contractName": "Counter",
  "sourceName": "hardhat/contracts/Counter.sol",
  "abi": [
    {
      "inputs": [],
      "stateMutability": "nonpayable",
      "type": "constructor"
    },
    {
      "inputs": [],
      "name": "InvalidIncrement",
      "type": "error"
    },
    {
      "inputs": [],
      "name": "NotOwner",
      "type": "error"
    },
    {
      "anonymous": false,
      "inputs": [
        {
          "indexed": true,
          "internalType": "address",
          "name": "caller",
          "type": "address"
        },
        {
          "indexed": false,
          "internalType": "uint256",
          "name": "by",
          "type": "uint256"
        }
      ],
      "name": "Increment",
      "type": "event"
    },
    {
      "inputs": [],
      "name": "count",
      "outputs": [
        {
          "internalType": "uint256",
          "name": "",
          "type": "uint256"
        }
      ],
      "stateMutability": "view",
      "type": "function"
    },
    {
      "inputs": [],
      "name": "inc",
      "outputs": [],
      "stateMutability": "nonpayable",
      "type": "function"
    },
    {
      "inputs": [
        {
          "internalType": "uint256",
          "name": "by",
          "type": "uint256"
        }
      ],
      "name": "incBy",
      "outputs": [],
      "stateMutability": "nonpayable",
      "type": "function"
    },
    {
      "inputs": [],
      "name": "owner",
      "outputs": [
        {
          "internalType": "address",
          "name": "",
          "type": "address"
        }
      ],
      "stateMutability": "view",
      "type": "function"
    }
  ],
  "bytecode": "0x6080604052348015600e575f5ffd5b50600180546001600160a01b031916331790556102268061002e5f395ff3fe608060405234801561000f575f5ffd5b506004361061004a575f3560e01c806306661abd1461004e578063371303c01461006957806370119d06146100735780638da5cb5b14610086575b5f5ffd5b6100565f5481565b6040519081526020015b60405180910390f35b6100716100b1565b005b610071610081366004610194565b6100fc565b600154610099906001600160a01b031681565b6040516001600160a01b039091168152602001610060565b5f805490806100bf836101bf565b90915550506040516001815233907fb182275171042022ff972a26edbd0171bccc74463bd22e56dbbeba4e93b7a6689060200160405180910390a2565b6001546001600160a01b03163314610127576040516330cd747160e01b815260040160405180910390fd5b5f811161014757604051635899c0df60e11b815260040160405180910390fd5b805f5f82825461015791906101d7565b909155505060405181815233907fb182275171042022ff972a26edbd0171bccc74463bd22e56dbbeba4e93b7a6689060200160405180910390a250565b5f602082840312156101a4575f5ffd5b5035919050565b634e487b7160e01b5f52601160045260245ffd5b5f600182016101d0576101d06101ab565b5060010190565b808201808211156101ea576101ea6101ab565b9291505056fea2646970667358221220c3dd4672f5201659e89bed0f138cccc3db5bae82e4ad06513d93f8a4a2cd708564736f6c634300081c0033",
  "linkReferences": {},
  "deployedLinkReferences": {},
  "immutableReferences": {},
  "inputSourceName": "project/hardhat/contracts/Counter.sol",
  "buildInfoId": "solc-0_8_28-3151b10f9cdb8d272a4f401d88d7a40f0293492c"
}